{
  "address": "0x68D7075CE6e79d5d52dff6d212Ec04c4032638F9",
  "abi": [
    {
      "inputs": [
        {
          "internalType": "address",
          "name": "dataFeedAddr",
          "type": "address"
        }
      ],
      "stateMutability": "nonpayable",
      "type": "constructor"
    },
    {
      "inputs": [],
      "name": "fund",
      "outputs": [],
      "stateMutability": "payable",
      "type": "function"
    },
    {
      "inputs": [
        {
          "internalType": "address",
          "name": "",
          "type": "address"
        }
      ],
      "name": "fundersToAccount",
      "outputs": [
        {
          "internalType": "uint256",
          "name": "",
          "type": "uint256"
        }
      ],
      "stateMutability": "view",
      "type": "function"
    },
    {
      "inputs": [],
      "name": "getChainlinkDataFeedLatestAnswer",
      "outputs": [
        {
          "internalType": "int256",
          "name": "",
          "type": "int256"
        }
      ],
      "stateMutability": "view",
      "type": "function"
    },
    {
      "inputs": [],
      "name": "getFund",
      "outputs": [],
      "stateMutability": "nonpayable",
      "type": "function"
    },
    {
      "inputs": [],
      "name": "owner",
      "outputs": [
        {
          "internalType": "address",
          "name": "",
          "type": "address"
        }
      ],
      "stateMutability": "view",
      "type": "function"
    },
    {
      "inputs": [],
      "name": "reFund",
      "outputs": [],
      "stateMutability": "nonpayable",
      "type": "function"
    },
    {
      "inputs": [
        {
          "internalType": "address",
          "name": "newOwner",
          "type": "address"
        }
      ],
      "name": "transferOwnerShip",
      "outputs": [],
      "stateMutability": "nonpayable",
      "type": "function"
    }
  ],
  "transactionHash": "0x98cb75019677515665437cfbed3456e01e7b6171e12b86a6633196ef09233a44",
  "args": [
    "0x694AA1769357215DE4FAC081bf1f309aDC325306"
  ],
  "numDeployments": 1,
  "solcInputHash": "47148ca80992634885fb12f0a00411b6",
  "bytecode": "0x608060405234801561001057600080fd5b50604051610f63380380610f638339818101604052810190610032919061011d565b80600160006101000a81548173ffffffffffffffffffffffffffffffffffffffff021916908373ffffffffffffffffffffffffffffffffffffffff16021790555033600260006101000a81548173ffffffffffffffffffffffffffffffffffffffff021916908373ffffffffffffffffffffffffffffffffffffffff1602179055505061014a565b600080fd5b600073ffffffffffffffffffffffffffffffffffffffff82169050919050565b60006100ea826100bf565b9050919050565b6100fa816100df565b811461010557600080fd5b50565b600081519050610117816100f1565b92915050565b600060208284031215610133576101326100ba565b5b600061014184828501610108565b91505092915050565b610e0a806101596000396000f3fe6080604052600436106100705760003560e01c80638edd6eb61161004e5780638edd6eb6146100e0578063b60d4288146100f7578063bea4dfb514610101578063c6da75a61461012c57610070565b80630ff0a4df146100755780638863dd1a1461008c5780638da5cb5b146100b5575b600080fd5b34801561008157600080fd5b5061008a610169565b005b34801561009857600080fd5b506100b360048036038101906100ae91906107f6565b610371565b005b3480156100c157600080fd5b506100ca610445565b6040516100d79190610832565b60405180910390f35b3480156100ec57600080fd5b506100f561046b565b005b6100ff610600565b005b34801561010d57600080fd5b506101166106aa565b6040516101239190610866565b60405180910390f35b34801561013857600080fd5b50610153600480360381019061014e91906107f6565b61074b565b604051610160919061089a565b60405180910390f35b68022b1c8c1227a0000061017c47610763565b11156101bd576040517f08c379a00000000000000000000000000000000000000000000000000000000081526004016101b490610912565b60405180910390fd5b60008060003373ffffffffffffffffffffffffffffffffffffffff1673ffffffffffffffffffffffffffffffffffffffff168152602001908152602001600020541161023e576040517f08c379a00000000000000000000000000000000000000000000000000000000081526004016102359061097e565b60405180910390fd5b60003373ffffffffffffffffffffffffffffffffffffffff166000803373ffffffffffffffffffffffffffffffffffffffff1673ffffffffffffffffffffffffffffffffffffffff168152602001908152602001600020546040516102a2906109cf565b60006040518083038185875af1925050503d80600081146102df576040519150601f19603f3d011682016040523d82523d6000602084013e6102e4565b606091505b5050809150508061032a576040517f08c379a000000000000000000000000000000000000000000000000000000000815260040161032190610a30565b60405180910390fd5b60008060003373ffffffffffffffffffffffffffffffffffffffff1673ffffffffffffffffffffffffffffffffffffffff1681526020019081526020016000208190555050565b600260009054906101000a900473ffffffffffffffffffffffffffffffffffffffff1673ffffffffffffffffffffffffffffffffffffffff163373ffffffffffffffffffffffffffffffffffffffff1614610401576040517f08c379a00000000000000000000000000000000000000000000000000000000081526004016103f890610ac2565b60405180910390fd5b80600260006101000a81548173ffffffffffffffffffffffffffffffffffffffff021916908373ffffffffffffffffffffffffffffffffffffffff16021790555050565b600260009054906101000a900473ffffffffffffffffffffffffffffffffffffffff1681565b600260009054906101000a900473ffffffffffffffffffffffffffffffffffffffff1673ffffffffffffffffffffffffffffffffffffffff163373ffffffffffffffffffffffffffffffffffffffff16146104fb576040517f08c379a00000000000000000000000000000000000000000000000000000000081526004016104f290610ac2565b60405180910390fd5b68022b1c8c1227a0000061050e47610763565b101561054f576040517f08c379a000000000000000000000000000000000000000000000000000000000815260040161054690610b2e565b60405180910390fd5b60003373ffffffffffffffffffffffffffffffffffffffff1647604051610575906109cf565b60006040518083038185875af1925050503d80600081146105b2576040519150601f19603f3d011682016040523d82523d6000602084013e6105b7565b606091505b505080915050806105fd576040517f08c379a00000000000000000000000000000000000000000000000000000000081526004016105f490610a30565b60405180910390fd5b50565b678ac7230489e8000061061234610763565b1015610653576040517f08c379a000000000000000000000000000000000000000000000000000000000815260040161064a90610b9a565b60405180910390fd5b346000803373ffffffffffffffffffffffffffffffffffffffff1673ffffffffffffffffffffffffffffffffffffffff16815260200190815260200160002060008282546106a19190610be9565b92505081905550565b600080600160009054906101000a900473ffffffffffffffffffffffffffffffffffffffff1673ffffffffffffffffffffffffffffffffffffffff1663feaf968c6040518163ffffffff1660e01b815260040160a060405180830381865afa15801561071a573d6000803e3d6000fd5b505050506040513d601f19601f8201168201806040525081019061073e9190610cb7565b5050509150508091505090565b60006020528060005260406000206000915090505481565b60008061076e6106aa565b90506305f5e10081846107819190610d32565b61078b9190610da3565b915050919050565b600080fd5b600073ffffffffffffffffffffffffffffffffffffffff82169050919050565b60006107c382610798565b9050919050565b6107d3816107b8565b81146107de57600080fd5b50565b6000813590506107f0816107ca565b92915050565b60006020828403121561080c5761080b610793565b5b600061081a848285016107e1565b91505092915050565b61082c816107b8565b82525050565b60006020820190506108476000830184610823565b92915050565b6000819050919050565b6108608161084d565b82525050565b600060208201905061087b6000830184610857565b92915050565b6000819050919050565b61089481610881565b82525050565b60006020820190506108af600083018461088b565b92915050565b600082825260208201905092915050565b7f5441524745542049532052454143484544000000000000000000000000000000600082015250565b60006108fc6011836108b5565b9150610907826108c6565b602082019050919050565b6000602082019050818103600083015261092b816108ef565b9050919050565b7f7468657265206973206e6f2066756e6420666f7220796f750000000000000000600082015250565b60006109686018836108b5565b915061097382610932565b602082019050919050565b600060208201905081810360008301526109978161095b565b9050919050565b600081905092915050565b50565b60006109b960008361099e565b91506109c4826109a9565b600082019050919050565b60006109da826109ac565b9150819050919050565b7f7472616e736665722074782066616c6c65640000000000000000000000000000600082015250565b6000610a1a6012836108b5565b9150610a25826109e4565b602082019050919050565b60006020820190508181036000830152610a4981610a0d565b9050919050565b7f746869732066756e6374696f6e672063616e206f6e6c792063616c6c6564206260008201527f79206f776e657200000000000000000000000000000000000000000000000000602082015250565b6000610aac6027836108b5565b9150610ab782610a50565b604082019050919050565b60006020820190508181036000830152610adb81610a9f565b9050919050565b7f544152474554204953204e4f5420524541434845440000000000000000000000600082015250565b6000610b186015836108b5565b9150610b2382610ae2565b602082019050919050565b60006020820190508181036000830152610b4781610b0b565b9050919050565b7f73656e64206d6f72652065746800000000000000000000000000000000000000600082015250565b6000610b84600d836108b5565b9150610b8f82610b4e565b602082019050919050565b60006020820190508181036000830152610bb381610b77565b9050919050565b7f4e487b7100000000000000000000000000000000000000000000000000000000600052601160045260246000fd5b6000610bf482610881565b9150610bff83610881565b9250828201905080821115610c1757610c16610bba565b5b92915050565b600069ffffffffffffffffffff82169050919050565b610c3c81610c1d565b8114610c4757600080fd5b50565b600081519050610c5981610c33565b92915050565b610c688161084d565b8114610c7357600080fd5b50565b600081519050610c8581610c5f565b92915050565b610c9481610881565b8114610c9f57600080fd5b50565b600081519050610cb181610c8b565b92915050565b600080600080600060a08688031215610cd357610cd2610793565b5b6000610ce188828901610c4a565b9550506020610cf288828901610c76565b9450506040610d0388828901610ca2565b9350506060610d1488828901610ca2565b9250506080610d2588828901610c4a565b9150509295509295909350565b6000610d3d82610881565b9150610d4883610881565b9250828202610d5681610881565b91508282048414831517610d6d57610d6c610bba565b5b5092915050565b7f4e487b7100000000000000000000000000000000000000000000000000000000600052601260045260246000fd5b6000610dae82610881565b9150610db983610881565b925082610dc957610dc8610d74565b5b82820490509291505056fea26469706673582212208101c9d88f13789c97a64602ddb43beb5909e3099ed021d2129d62cf620b452d64736f6c63430008180033",
  "devdoc": {
    "kind": "dev",
    "methods": {},
    "version": 1
  },
  "userdoc": {
    "kind": "user",
    "methods": {},
    "version": 1
  },
  "storageLayout": {
    "storage": [
      {
        "astId": 53,
        "contract": "contracts/fundMe.sol:FundMe",
        "label": "fundersToAccount",
        "offset": 0,
        "slot": "0",
        "type": "t_mapping(t_address,t_uint256)"
      },
      {
        "astId": 63,
        "contract": "contracts/fundMe.sol:FundMe",
        "label": "dataFeed",
        "offset": 0,
        "slot": "1",
        "type": "t_contract(AggregatorV3Interface)45"
      },
      {
        "astId": 72,
        "contract": "contracts/fundMe.sol:FundMe",
        "label": "owner",
        "offset": 0,
        "slot": "2",
        "type": "t_address"
      }
    ],
    "types": {
      "t_address": {
        "encoding": "inplace",
        "label": "address",
        "numberOfBytes": "20"
      },
      "t_contract(AggregatorV3Interface)45": {
        "encoding": "inplace",
        "label": "contract AggregatorV3Interface",
        "numberOfBytes": "20"
      },
      "t_mapping(t_address,t_uint256)": {
        "encoding": "mapping",
        "key": "t_address",
        "label": "mapping(address => uint256)",
        "numberOfBytes": "32",
        "value": "t_uint256"
      },
      "t_uint256": {
        "encoding": "inplace",
        "label": "uint256",
        "numberOfBytes": "32"
      }
    }
  }
}